{
  "_format": "hh-sol-artifact-1",
  "contractName": "MedicalRecord",
  "sourceName": "contracts/MedicalRecord.sol",
  "abi": [
    {
      "inputs": [],
      "stateMutability": "nonpayable",
      "type": "constructor"
    },
    {
      "anonymous": false,
      "inputs": [
        {
          "indexed": true,
          "internalType": "address",
          "name": "patientAddress",
          "type": "address"
        },
        {
          "indexed": true,
          "internalType": "address",
          "name": "doctorAddress",
          "type": "address"
        },
        {
          "indexed": false,
          "internalType": "string",
          "name": "date",
          "type": "string"
        },
        {
          "indexed": false,
          "internalType": "string",
          "name": "time",
          "type": "string"
        },
        {
          "indexed": false,
          "internalType": "string",
          "name": "diagnosis",
          "type": "string"
        },
        {
          "indexed": false,
          "internalType": "string",
          "name": "prescription",
          "type": "string"
        },
        {
          "indexed": false,
          "internalType": "string",
          "name": "description",
          "type": "string"
        },
        {
          "indexed": false,
          "internalType": "string",
          "name": "status",
          "type": "string"
        }
      ],
      "name": "AppointmentSet",
      "type": "event"
    },
    {
      "anonymous": false,
      "inputs": [
        {
          "indexed": true,
          "internalType": "address",
          "name": "doctorAddress",
          "type": "address"
        },
        {
          "indexed": false,
          "internalType": "uint256",
          "name": "ic",
          "type": "uint256"
        },
        {
          "indexed": false,
          "internalType": "string",
          "name": "name",
          "type": "string"
        },
        {
          "indexed": false,
          "internalType": "uint256",
          "name": "phone",
          "type": "uint256"
        },
        {
          "indexed": false,
          "internalType": "string",
          "name": "gender",
          "type": "string"
        },
        {
          "indexed": false,
          "internalType": "string",
          "name": "dob",
          "type": "string"
        },
        {
          "indexed": false,
          "internalType": "string",
          "name": "qualification",
          "type": "string"
        },
        {
          "indexed": false,
          "internalType": "string",
          "name": "major",
          "type": "string"
        }
      ],
      "name": "DoctorDetailsSet",
      "type": "event"
    },
    {
      "anonymous": false,
      "inputs": [
        {
          "indexed": true,
          "internalType": "address",
          "name": "patientAddress",
          "type": "address"
        },
        {
          "indexed": false,
          "internalType": "uint256",
          "name": "ssn",
          "type": "uint256"
        },
        {
          "indexed": false,
          "internalType": "string",
          "name": "name",
          "type": "string"
        },
        {
          "indexed": false,
          "internalType": "uint256",
          "name": "phone",
          "type": "uint256"
        },
        {
          "indexed": false,
          "internalType": "string",
          "name": "gender",
          "type": "string"
        },
        {
          "indexed": false,
          "internalType": "string",
          "name": "dob",
          "type": "string"
        },
        {
          "indexed": false,
          "internalType": "string",
          "name": "homeaddr",
          "type": "string"
        },
        {
          "indexed": false,
          "internalType": "string",
          "name": "bloodgroup",
          "type": "string"
        },
        {
          "indexed": false,
          "internalType": "string",
          "name": "allergies",
          "type": "string"
        },
        {
          "indexed": false,
          "internalType": "string",
          "name": "medication",
          "type": "string"
        }
      ],
      "name": "PatientDetailsSet",
      "type": "event"
    },
    {
      "anonymous": false,
      "inputs": [
        {
          "indexed": true,
          "internalType": "address",
          "name": "patientAddress",
          "type": "address"
        },
        {
          "indexed": true,
          "internalType": "address",
          "name": "grantedAddress",
          "type": "address"
        }
      ],
      "name": "PermissionGranted",
      "type": "event"
    },
    {
      "anonymous": false,
      "inputs": [
        {
          "indexed": true,
          "internalType": "address",
          "name": "patientAddress",
          "type": "address"
        },
        {
          "indexed": true,
          "internalType": "address",
          "name": "revokedAddress",
          "type": "address"
        }
      ],
      "name": "PermissionRevoked",
      "type": "event"
    },
    {
      "stateMutability": "payable",
      "type": "fallback"
    },
    {
      "inputs": [],
      "name": "appointmentCount",
      "outputs": [
        {
          "internalType": "uint256",
          "name": "",
          "type": "uint256"
        }
      ],
      "stateMutability": "view",
      "type": "function"
    },
    {
      "inputs": [
        {
          "internalType": "uint256",
          "name": "",
          "type": "uint256"
        }
      ],
      "name": "appointmentList",
      "outputs": [
        {
          "internalType": "address",
          "name": "",
          "type": "address"
        }
      ],
      "stateMutability": "view",
      "type": "function"
    },
    {
      "inputs": [
        {
          "internalType": "address",
          "name": "",
          "type": "address"
        }
      ],
      "name": "appointments",
      "outputs": [
        {
          "internalType": "address",
          "name": "doctorAddr",
          "type": "address"
        },
        {
          "internalType": "address",
          "name": "patientAddr",
          "type": "address"
        },
        {
          "internalType": "string",
          "name": "date",
          "type": "string"
        },
        {
          "internalType": "string",
          "name": "time",
          "type": "string"
        },
        {
          "internalType": "string",
          "name": "prescription",
          "type": "string"
        },
        {
          "internalType": "string",
          "name": "description",
          "type": "string"
        },
        {
          "internalType": "string",
          "name": "diagnosis",
          "type": "string"
        },
        {
          "internalType": "string",
          "name": "status",
          "type": "string"
        },
        {
          "internalType": "uint256",
          "name": "creationDate",
          "type": "uint256"
        }
      ],
      "stateMutability": "view",
      "type": "function"
    },
    {
      "inputs": [
        {
          "internalType": "address",
          "name": "",
          "type": "address"
        }
      ],
      "name": "appointmentsPerPatient",
      "outputs": [
        {
          "internalType": "uint256",
          "name": "",
          "type": "uint256"
        }
      ],
      "stateMutability": "view",
      "type": "function"
    },
    {
      "inputs": [],
      "name": "doctorCount",
      "outputs": [
        {
          "internalType": "uint256",
          "name": "",
          "type": "uint256"
        }
      ],
      "stateMutability": "view",
      "type": "function"
    },
    {
      "inputs": [
        {
          "internalType": "uint256",
          "name": "",
          "type": "uint256"
        }
      ],
      "name": "doctorList",
      "outputs": [
        {
          "internalType": "address",
          "name": "",
          "type": "address"
        }
      ],
      "stateMutability": "view",
      "type": "function"
    },
    {
      "inputs": [
        {
          "internalType": "address",
          "name": "",
          "type": "address"
        }
      ],
      "name": "doctors",
      "outputs": [
        {
          "internalType": "uint256",
          "name": "ic",
          "type": "uint256"
        },
        {
          "internalType": "string",
          "name": "name",
          "type": "string"
        },
        {
          "internalType": "uint256",
          "name": "phone",
          "type": "uint256"
        },
        {
          "internalType": "string",
          "name": "gender",
          "type": "string"
        },
        {
          "internalType": "string",
          "name": "dob",
          "type": "string"
        },
        {
          "internalType": "string",
          "name": "qualification",
          "type": "string"
        },
        {
          "internalType": "string",
          "name": "major",
          "type": "string"
        },
        {
          "internalType": "uint256",
          "name": "date",
          "type": "uint256"
        }
      ],
      "stateMutability": "view",
      "type": "function"
    },
    {
      "inputs": [
        {
          "internalType": "uint256",
          "name": "_ssn",
          "type": "uint256"
        },
        {
          "internalType": "string",
          "name": "_name",
          "type": "string"
        },
        {
          "internalType": "uint256",
          "name": "_phone",
          "type": "uint256"
        },
        {
          "internalType": "string",
          "name": "_gender",
          "type": "string"
        },
        {
          "internalType": "string",
          "name": "_dob",
          "type": "string"
        },
        {
          "internalType": "string",
          "name": "_homeaddr",
          "type": "string"
        },
        {
          "internalType": "string",
          "name": "_bloodgroup",
          "type": "string"
        },
        {
          "internalType": "string",
          "name": "_allergies",
          "type": "string"
        },
        {
          "internalType": "string",
          "name": "_medication",
          "type": "string"
        }
      ],
      "name": "editDetails",
      "outputs": [],
      "stateMutability": "nonpayable",
      "type": "function"
    },
    {
      "inputs": [
        {
          "internalType": "uint256",
          "name": "_ic",
          "type": "uint256"
        },
        {
          "internalType": "string",
          "name": "_name",
          "type": "string"
        },
        {
          "internalType": "uint256",
          "name": "_phone",
          "type": "uint256"
        },
        {
          "internalType": "string",
          "name": "_gender",
          "type": "string"
        },
        {
          "internalType": "string",
          "name": "_dob",
          "type": "string"
        },
        {
          "internalType": "string",
          "name": "_qualification",
          "type": "string"
        },
        {
          "internalType": "string",
          "name": "_major",
          "type": "string"
        }
      ],
      "name": "editDoctor",
      "outputs": [],
      "stateMutability": "nonpayable",
      "type": "function"
    },
    {
      "inputs": [],
      "name": "getAppointments",
      "outputs": [
        {
          "internalType": "address[]",
          "name": "",
          "type": "address[]"
        }
      ],
      "stateMutability": "view",
      "type": "function"
    },
    {
      "inputs": [],
      "name": "getDoctors",
      "outputs": [
        {
          "internalType": "address[]",
          "name": "",
          "type": "address[]"
        }
      ],
      "stateMutability": "view",
      "type": "function"
    },
    {
      "inputs": [],
      "name": "getPatients",
      "outputs": [
        {
          "internalType": "address[]",
          "name": "",
          "type": "address[]"
        }
      ],
      "stateMutability": "view",
      "type": "function"
    },
    {
      "inputs": [
        {
          "internalType": "address",
          "name": "_address",
          "type": "address"
        }
      ],
      "name": "givePermission",
      "outputs": [
        {
          "internalType": "bool",
          "name": "success",
          "type": "bool"
        }
      ],
      "stateMutability": "nonpayable",
      "type": "function"
    },
    {
      "inputs": [
        {
          "internalType": "uint256",
          "name": "_ssn",
          "type": "uint256"
        },
        {
          "internalType": "string",
          "name": "_name",
          "type": "string"
        },
        {
          "internalType": "uint256",
          "name": "_phone",
          "type": "uint256"
        },
        {
          "internalType": "string",
          "name": "_gender",
          "type": "string"
        },
        {
          "internalType": "string",
          "name": "_dob",
          "type": "string"
        },
        {
          "internalType": "string",
          "name": "_homeaddr",
          "type": "string"
        },
        {
          "internalType": "string",
          "name": "_bloodgroup",
          "type": "string"
        },
        {
          "internalType": "string",
          "name": "_allergies",
          "type": "string"
        },
        {
          "internalType": "string",
          "name": "_medication",
          "type": "string"
        }
      ],
      "name": "hashPatientData",
      "outputs": [
        {
          "internalType": "bytes32",
          "name": "",
          "type": "bytes32"
        }
      ],
      "stateMutability": "pure",
      "type": "function"
    },
    {
      "inputs": [
        {
          "internalType": "address",
          "name": "",
          "type": "address"
        },
        {
          "internalType": "address",
          "name": "",
          "type": "address"
        }
      ],
      "name": "isApproved",
      "outputs": [
        {
          "internalType": "bool",
          "name": "",
          "type": "bool"
        }
      ],
      "stateMutability": "view",
      "type": "function"
    },
    {
      "inputs": [
        {
          "internalType": "address",
          "name": "",
          "type": "address"
        }
      ],
      "name": "isDoctor",
      "outputs": [
        {
          "internalType": "bool",
          "name": "",
          "type": "bool"
        }
      ],
      "stateMutability": "view",
      "type": "function"
    },
    {
      "inputs": [
        {
          "internalType": "address",
          "name": "",
          "type": "address"
        }
      ],
      "name": "isPatient",
      "outputs": [
        {
          "internalType": "bool",
          "name": "",
          "type": "bool"
        }
      ],
      "stateMutability": "view",
      "type": "function"
    },
    {
      "inputs": [],
      "name": "owner",
      "outputs": [
        {
          "internalType": "address",
          "name": "",
          "type": "address"
        }
      ],
      "stateMutability": "view",
      "type": "function"
    },
    {
      "inputs": [],
      "name": "patientCount",
      "outputs": [
        {
          "internalType": "uint256",
          "name": "",
          "type": "uint256"
        }
      ],
      "stateMutability": "view",
      "type": "function"
    },
    {
      "inputs": [
        {
          "internalType": "uint256",
          "name": "",
          "type": "uint256"
        }
      ],
      "name": "patientList",
      "outputs": [
        {
          "internalType": "address",
          "name": "",
          "type": "address"
        }
      ],
      "stateMutability": "view",
      "type": "function"
    },
    {
      "inputs": [
        {
          "internalType": "address",
          "name": "",
          "type": "address"
        }
      ],
      "name": "patients",
      "outputs": [
        {
          "internalType": "bytes32",
          "name": "hashedData",
          "type": "bytes32"
        },
        {
          "internalType": "uint256",
          "name": "date",
          "type": "uint256"
        }
      ],
      "stateMutability": "view",
      "type": "function"
    },
    {
      "inputs": [],
      "name": "permissionGrantedCount",
      "outputs": [
        {
          "internalType": "uint256",
          "name": "",
          "type": "uint256"
        }
      ],
      "stateMutability": "view",
      "type": "function"
    },
    {
      "inputs": [
        {
          "internalType": "address",
          "name": "_address",
          "type": "address"
        }
      ],
      "name": "revokePermission",
      "outputs": [
        {
          "internalType": "bool",
          "name": "success",
          "type": "bool"
        }
      ],
      "stateMutability": "nonpayable",
      "type": "function"
    },
    {
      "inputs": [
        {
          "internalType": "address",
          "name": "_addr",
          "type": "address"
        },
        {
          "internalType": "string",
          "name": "_date",
          "type": "string"
        },
        {
          "internalType": "string",
          "name": "_time",
          "type": "string"
        },
        {
          "internalType": "string",
          "name": "_diagnosis",
          "type": "string"
        },
        {
          "internalType": "string",
          "name": "_prescription",
          "type": "string"
        },
        {
          "internalType": "string",
          "name": "_description",
          "type": "string"
        },
        {
          "internalType": "string",
          "name": "_status",
          "type": "string"
        }
      ],
      "name": "setAppointment",
      "outputs": [],
      "stateMutability": "nonpayable",
      "type": "function"
    },
    {
      "inputs": [
        {
          "internalType": "uint256",
          "name": "_ssn",
          "type": "uint256"
        },
        {
          "internalType": "string",
          "name": "_name",
          "type": "string"
        },
        {
          "internalType": "uint256",
          "name": "_phone",
          "type": "uint256"
        },
        {
          "internalType": "string",
          "name": "_gender",
          "type": "string"
        },
        {
          "internalType": "string",
          "name": "_dob",
          "type": "string"
        },
        {
          "internalType": "string",
          "name": "_homeaddr",
          "type": "string"
        },
        {
          "internalType": "string",
          "name": "_bloodgroup",
          "type": "string"
        },
        {
          "internalType": "string",
          "name": "_allergies",
          "type": "string"
        },
        {
          "internalType": "string",
          "name": "_medication",
          "type": "string"
        }
      ],
      "name": "setDetails",
      "outputs": [],
      "stateMutability": "nonpayable",
      "type": "function"
    },
    {
      "inputs": [
        {
          "internalType": "uint256",
          "name": "_ic",
          "type": "uint256"
        },
        {
          "internalType": "string",
          "name": "_name",
          "type": "string"
        },
        {
          "internalType": "uint256",
          "name": "_phone",
          "type": "uint256"
        },
        {
          "internalType": "string",
          "name": "_gender",
          "type": "string"
        },
        {
          "internalType": "string",
          "name": "_dob",
          "type": "string"
        },
        {
          "internalType": "string",
          "name": "_qualification",
          "type": "string"
        },
        {
          "internalType": "string",
          "name": "_major",
          "type": "string"
        }
      ],
      "name": "setDoctor",
      "outputs": [],
      "stateMutability": "nonpayable",
      "type": "function"
    },
    {
      "inputs": [
        {
          "internalType": "address",
          "name": "_addr",
          "type": "address"
        },
        {
          "internalType": "string",
          "name": "_date",
          "type": "string"
        },
        {
          "internalType": "string",
          "name": "_time",
          "type": "string"
        },
        {
          "internalType": "string",
          "name": "_diagnosis",
          "type": "string"
        },
        {
          "internalType": "string",
          "name": "_prescription",
          "type": "string"
        },
        {
          "internalType": "string",
          "name": "_description",
          "type": "string"
        },
        {
          "internalType": "string",
          "name": "_status",
          "type": "string"
        }
      ],
      "name": "updateAppointment",
      "outputs": [],
      "stateMutability": "nonpayable",
      "type": "function"
    },
    {
      "stateMutability": "payable",
      "type": "receive"
    }
  ],
  "bytecode": "0x608060405234801561001057600080fd5b50336000806101000a81548173ffffffffffffffffffffffffffffffffffffffff021916908373ffffffffffffffffffffffffffffffffffffffff1602179055506139d3806100606000396000f3fe6080604052600436106101a05760003560e01c8063996440c6116100ec578063b13d5d941161008a578063e6fce0d211610064578063e6fce0d2146106d8578063eebc3fb214610715578063f992eca214610740578063fda801fb14610769576101e0565b8063b13d5d9414610645578063babb1d4114610670578063c0cb24ba146106ad576101e0565b8063a389783e116100c6578063a389783e1461054a578063a3bf5b9a14610587578063a9583c22146105c4578063a9ab5e9a14610608576101e0565b8063996440c6146104a55780639d3bb37c146104e2578063a0303c411461051f576101e0565b80633d391f70116101595780637a7d8f63116101335780637a7d8f63146103cd5780638da5cb5b146104125780638f9c79ed1461043d57806396b80d081461047a576101e0565b80633d391f701461033c5780634af6932c1461037957806378522bc4146103a2576101e0565b80630869cfbc1461021b578063127ca4b41461025957806312ad1c3714610296578063245f9686146102c1578063254c549d146102ea578063261b73f314610313576101e0565b366101e0576040517f08c379a00000000000000000000000000000000000000000000000000000000081526004016101d7906123f2565b60405180910390fd5b6040517f08c379a00000000000000000000000000000000000000000000000000000000081526004016102129061245e565b60405180910390fd5b34801561022757600080fd5b50610242600480360381019061023d91906124f0565b610792565b60405161025092919061254f565b60405180910390f35b34801561026557600080fd5b50610280600480360381019061027b91906125a4565b6107b6565b60405161028d91906125e0565b60405180910390f35b3480156102a257600080fd5b506102ab6107f5565b6040516102b891906126b9565b60405180910390f35b3480156102cd57600080fd5b506102e860048036038101906102e39190612821565b6108cb565b005b3480156102f657600080fd5b50610311600480360381019061030c919061296b565b610b96565b005b34801561031f57600080fd5b5061033a60048036038101906103359190612821565b610e12565b005b34801561034857600080fd5b50610363600480360381019061035e91906124f0565b610fdd565b6040516103709190612ab4565b60405180910390f35b34801561038557600080fd5b506103a0600480360381019061039b9190612acf565b61117b565b005b3480156103ae57600080fd5b506103b761148b565b6040516103c49190612c5d565b60405180910390f35b3480156103d957600080fd5b506103f460048036038101906103ef91906124f0565b611491565b60405161040999989796959493929190612ce6565b60405180910390f35b34801561041e57600080fd5b5061042761184f565b60405161043491906125e0565b60405180910390f35b34801561044957600080fd5b50610464600480360381019061045f91906124f0565b611873565b6040516104719190612ab4565b60405180910390f35b34801561048657600080fd5b5061048f611893565b60405161049c91906126b9565b60405180910390f35b3480156104b157600080fd5b506104cc60048036038101906104c791906124f0565b611969565b6040516104d99190612ab4565b60405180910390f35b3480156104ee57600080fd5b50610509600480360381019061050491906124f0565b611989565b6040516105169190612c5d565b60405180910390f35b34801561052b57600080fd5b506105346119a1565b6040516105419190612c5d565b60405180910390f35b34801561055657600080fd5b50610571600480360381019061056c9190612d9d565b6119a7565b60405161057e9190612ab4565b60405180910390f35b34801561059357600080fd5b506105ae60048036038101906105a991906124f0565b6119d6565b6040516105bb9190612ab4565b60405180910390f35b3480156105d057600080fd5b506105eb60048036038101906105e691906124f0565b611b5c565b6040516105ff989796959493929190612ddd565b60405180910390f35b34801561061457600080fd5b5061062f600480360381019061062a9190612acf565b611e4c565b60405161063c9190612e7e565b60405180910390f35b34801561065157600080fd5b5061065a611e94565b60405161066791906126b9565b60405180910390f35b34801561067c57600080fd5b50610697600480360381019061069291906125a4565b611f6a565b6040516106a491906125e0565b60405180910390f35b3480156106b957600080fd5b506106c2611fa9565b6040516106cf9190612c5d565b60405180910390f35b3480156106e457600080fd5b506106ff60048036038101906106fa91906125a4565b611faf565b60405161070c91906125e0565b60405180910390f35b34801561072157600080fd5b5061072a611fee565b6040516107379190612c5d565b60405180910390f35b34801561074c57600080fd5b506107676004803603810190610762919061296b565b611ff4565b005b34801561077557600080fd5b50610790600480360381019061078b9190612acf565b6121c7565b005b60046020528060005260406000206000915090508060000154908060010154905082565b600281815481106107c657600080fd5b906000526020600020016000915054906101000a900473ffffffffffffffffffffffffffffffffffffffff1681565b606060006001805490501161083f576040517f08c379a000000000000000000000000000000000000000000000000000000000815260040161083690612ee5565b60405180910390fd5b60018054806020026020016040519081016040528092919081815260200182805480156108c157602002820191906000526020600020905b8160009054906101000a900473ffffffffffffffffffffffffffffffffffffffff1673ffffffffffffffffffffffffffffffffffffffff1681526020019060010190808311610877575b5050505050905090565b600086511161090f576040517f08c379a000000000000000000000000000000000000000000000000000000000815260040161090690612f51565b60405180910390fd5b6000600660008973ffffffffffffffffffffffffffffffffffffffff1673ffffffffffffffffffffffffffffffffffffffff1681526020019081526020016000209050338160000160006101000a81548173ffffffffffffffffffffffffffffffffffffffff021916908373ffffffffffffffffffffffffffffffffffffffff160217905550878160010160006101000a81548173ffffffffffffffffffffffffffffffffffffffff021916908373ffffffffffffffffffffffffffffffffffffffff160217905550868160020190816109e9919061317d565b50858160030190816109fb919061317d565b5084816006019081610a0d919061317d565b5083816004019081610a1f919061317d565b5082816005019081610a31919061317d565b5081816007019081610a43919061317d565b504281600801819055506003889080600181540180825580915050600190039060005260206000200160009091909190916101000a81548173ffffffffffffffffffffffffffffffffffffffff021916908373ffffffffffffffffffffffffffffffffffffffff160217905550600d6000815480929190610ac39061327e565b9190505550600a60008973ffffffffffffffffffffffffffffffffffffffff1673ffffffffffffffffffffffffffffffffffffffff1681526020019081526020016000206000815480929190610b189061327e565b91905055503373ffffffffffffffffffffffffffffffffffffffff168873ffffffffffffffffffffffffffffffffffffffff167fafd67ab4aa29deb907ea34bb24f85a544c864252668e58e93a8c0b7ea0be8342898989898989604051610b84969594939291906132c6565b60405180910390a35050505050505050565b600960003373ffffffffffffffffffffffffffffffffffffffff1673ffffffffffffffffffffffffffffffffffffffff16815260200190815260200160002060009054906101000a900460ff1615610c23576040517f08c379a0000000000000000000000000000000000000000000000000000000008152600401610c1a9061339d565b60405180910390fd5b6000600560003373ffffffffffffffffffffffffffffffffffffffff1673ffffffffffffffffffffffffffffffffffffffff168152602001908152602001600020905087816000018190555086816001019081610c80919061317d565b5085816002018190555084816003019081610c9b919061317d565b5083816004019081610cad919061317d565b5082816005019081610cbf919061317d565b5081816006019081610cd1919061317d565b504281600701819055506002339080600181540180825580915050600190039060005260206000200160009091909190916101000a81548173ffffffffffffffffffffffffffffffffffffffff021916908373ffffffffffffffffffffffffffffffffffffffff1602179055506001600960003373ffffffffffffffffffffffffffffffffffffffff1673ffffffffffffffffffffffffffffffffffffffff16815260200190815260200160002060006101000a81548160ff021916908315150217905550600c6000815480929190610da99061327e565b91905055503373ffffffffffffffffffffffffffffffffffffffff167fe27a1b1f0cae77411801aff01efb3b01d017e2df468a2dd3e70bb4d35f6c4f3489898989898989604051610e0097969594939291906133bd565b60405180910390a25050505050505050565b600960003373ffffffffffffffffffffffffffffffffffffffff1673ffffffffffffffffffffffffffffffffffffffff16815260200190815260200160002060009054906101000a900460ff16610e9e576040517f08c379a0000000000000000000000000000000000000000000000000000000008152600401610e95906134c1565b60405180910390fd5b6000600660008973ffffffffffffffffffffffffffffffffffffffff1673ffffffffffffffffffffffffffffffffffffffff1681526020019081526020016000209050338160000160006101000a81548173ffffffffffffffffffffffffffffffffffffffff021916908373ffffffffffffffffffffffffffffffffffffffff160217905550878160010160006101000a81548173ffffffffffffffffffffffffffffffffffffffff021916908373ffffffffffffffffffffffffffffffffffffffff16021790555086816002019081610f78919061317d565b5085816003019081610f8a919061317d565b5084816006019081610f9c919061317d565b5083816004019081610fae919061317d565b5082816005019081610fc0919061317d565b5081816007019081610fd2919061317d565b505050505050505050565b6000600860003373ffffffffffffffffffffffffffffffffffffffff1673ffffffffffffffffffffffffffffffffffffffff16815260200190815260200160002060009054906101000a900460ff1661106b576040517f08c379a000000000000000000000000000000000000000000000000000000000815260040161106290613553565b60405180910390fd5b6001600760003373ffffffffffffffffffffffffffffffffffffffff1673ffffffffffffffffffffffffffffffffffffffff16815260200190815260200160002060008473ffffffffffffffffffffffffffffffffffffffff1673ffffffffffffffffffffffffffffffffffffffff16815260200190815260200160002060006101000a81548160ff021916908315150217905550600e60008154809291906111139061327e565b91905055508173ffffffffffffffffffffffffffffffffffffffff163373ffffffffffffffffffffffffffffffffffffffff167f0ceda602a8e00ef76afe24614343eb6c034877c816b6184d641d2d8b713a0fc660405160405180910390a360019050919050565b600860003373ffffffffffffffffffffffffffffffffffffffff1673ffffffffffffffffffffffffffffffffffffffff16815260200190815260200160002060009054906101000a900460ff1615611208576040517f08c379a00000000000000000000000000000000000000000000000000000000081526004016111ff906135bf565b60405180910390fd5b600061121b8a8a8a8a8a8a8a8a8a611e4c565b90506000600460003373ffffffffffffffffffffffffffffffffffffffff1673ffffffffffffffffffffffffffffffffffffffff1681526020019081526020016000209050818160000154036112a6576040517f08c379a000000000000000000000000000000000000000000000000000000000815260040161129d9061362b565b60405180910390fd5b8181600001819055504281600101819055506001339080600181540180825580915050600190039060005260206000200160009091909190916101000a81548173ffffffffffffffffffffffffffffffffffffffff021916908373ffffffffffffffffffffffffffffffffffffffff1602179055506001600860003373ffffffffffffffffffffffffffffffffffffffff1673ffffffffffffffffffffffffffffffffffffffff16815260200190815260200160002060006101000a81548160ff0219169083151502179055506001600760003373ffffffffffffffffffffffffffffffffffffffff1673ffffffffffffffffffffffffffffffffffffffff16815260200190815260200160002060003373ffffffffffffffffffffffffffffffffffffffff1673ffffffffffffffffffffffffffffffffffffffff16815260200190815260200160002060006101000a81548160ff021916908315150217905550600b600081548092919061141b9061327e565b91905055503373ffffffffffffffffffffffffffffffffffffffff167fa9449eba6b1fa55e82638d94923a10e3aac7aed5bb16f4b03a04a14abf8083668c8c8c8c8c8c8c8c8c6040516114769998979695949392919061364b565b60405180910390a25050505050505050505050565b600c5481565b60066020528060005260406000206000915090508060000160009054906101000a900473ffffffffffffffffffffffffffffffffffffffff16908060010160009054906101000a900473ffffffffffffffffffffffffffffffffffffffff169080600201805461150090612fa0565b80601f016020809104026020016040519081016040528092919081815260200182805461152c90612fa0565b80156115795780601f1061154e57610100808354040283529160200191611579565b820191906000526020600020905b81548152906001019060200180831161155c57829003601f168201915b50505050509080600301805461158e90612fa0565b80601f01602080910402602001604051908101604052809291908181526020018280546115ba90612fa0565b80156116075780601f106115dc57610100808354040283529160200191611607565b820191906000526020600020905b8154815290600101906020018083116115ea57829003601f168201915b50505050509080600401805461161c90612fa0565b80601f016020809104026020016040519081016040528092919081815260200182805461164890612fa0565b80156116955780601f1061166a57610100808354040283529160200191611695565b820191906000526020600020905b81548152906001019060200180831161167857829003601f168201915b5050505050908060050180546116aa90612fa0565b80601f01602080910402602001604051908101604052809291908181526020018280546116d690612fa0565b80156117235780601f106116f857610100808354040283529160200191611723565b820191906000526020600020905b81548152906001019060200180831161170657829003601f168201915b50505050509080600601805461173890612fa0565b80601f016020809104026020016040519081016040528092919081815260200182805461176490612fa0565b80156117b15780601f10611786576101008083540402835291602001916117b1565b820191906000526020600020905b81548152906001019060200180831161179457829003601f168201915b5050505050908060070180546117c690612fa0565b80601f01602080910402602001604051908101604052809291908181526020018280546117f290612fa0565b801561183f5780601f106118145761010080835404028352916020019161183f565b820191906000526020600020905b81548152906001019060200180831161182257829003601f168201915b5050505050908060080154905089565b60008054906101000a900473ffffffffffffffffffffffffffffffffffffffff1681565b60086020528060005260406000206000915054906101000a900460ff1681565b60606000600380549050116118dd576040517f08c379a00000000000000000000000000000000000000000000000000000000081526004016118d490613755565b60405180910390fd5b600380548060200260200160405190810160405280929190818152602001828054801561195f57602002820191906000526020600020905b8160009054906101000a900473ffffffffffffffffffffffffffffffffffffffff1673ffffffffffffffffffffffffffffffffffffffff1681526020019060010190808311611915575b5050505050905090565b60096020528060005260406000206000915054906101000a900460ff1681565b600a6020528060005260406000206000915090505481565b600b5481565b60076020528160005260406000206020528060005260406000206000915091509054906101000a900460ff1681565b6000600860003373ffffffffffffffffffffffffffffffffffffffff1673ffffffffffffffffffffffffffffffffffffffff16815260200190815260200160002060009054906101000a900460ff16611a64576040517f08c379a0000000000000000000000000000000000000000000000000000000008152600401611a5b90613553565b60405180910390fd5b6000600760003373ffffffffffffffffffffffffffffffffffffffff1673ffffffffffffffffffffffffffffffffffffffff16815260200190815260200160002060008473ffffffffffffffffffffffffffffffffffffffff1673ffffffffffffffffffffffffffffffffffffffff16815260200190815260200160002060006101000a81548160ff0219169083151502179055508173ffffffffffffffffffffffffffffffffffffffff163373ffffffffffffffffffffffffffffffffffffffff167f5f708ef9fc37d19d88246c264788c8cdf640c9ff500bd168e941ea1421c4f6c460405160405180910390a360019050919050565b6005602052806000526040600020600091509050806000015490806001018054611b8590612fa0565b80601f0160208091040260200160405190810160405280929190818152602001828054611bb190612fa0565b8015611bfe5780601f10611bd357610100808354040283529160200191611bfe565b820191906000526020600020905b815481529060010190602001808311611be157829003601f168201915b505050505090806002015490806003018054611c1990612fa0565b80601f0160208091040260200160405190810160405280929190818152602001828054611c4590612fa0565b8015611c925780601f10611c6757610100808354040283529160200191611c92565b820191906000526020600020905b815481529060010190602001808311611c7557829003601f168201915b505050505090806004018054611ca790612fa0565b80601f0160208091040260200160405190810160405280929190818152602001828054611cd390612fa0565b8015611d205780601f10611cf557610100808354040283529160200191611d20565b820191906000526020600020905b815481529060010190602001808311611d0357829003601f168201915b505050505090806005018054611d3590612fa0565b80601f0160208091040260200160405190810160405280929190818152602001828054611d6190612fa0565b8015611dae5780601f10611d8357610100808354040283529160200191611dae565b820191906000526020600020905b815481529060010190602001808311611d9157829003601f168201915b505050505090806006018054611dc390612fa0565b80601f0160208091040260200160405190810160405280929190818152602001828054611def90612fa0565b8015611e3c5780601f10611e1157610100808354040283529160200191611e3c565b820191906000526020600020905b815481529060010190602001808311611e1f57829003601f168201915b5050505050908060070154905088565b6000898989898989898989604051602001611e6f999897969594939291906137d2565b6040516020818303038152906040528051906020012090509998505050505050505050565b6060600060028054905011611ede576040517f08c379a0000000000000000000000000000000000000000000000000000000008152600401611ed5906138a5565b60405180910390fd5b6002805480602002602001604051908101604052809291908181526020018280548015611f6057602002820191906000526020600020905b8160009054906101000a900473ffffffffffffffffffffffffffffffffffffffff1673ffffffffffffffffffffffffffffffffffffffff1681526020019060010190808311611f16575b5050505050905090565b60018181548110611f7a57600080fd5b906000526020600020016000915054906101000a900473ffffffffffffffffffffffffffffffffffffffff1681565b600e5481565b60038181548110611fbf57600080fd5b906000526020600020016000915054906101000a900473ffffffffffffffffffffffffffffffffffffffff1681565b600d5481565b600960003373ffffffffffffffffffffffffffffffffffffffff1673ffffffffffffffffffffffffffffffffffffffff16815260200190815260200160002060009054906101000a900460ff16612080576040517f08c379a0000000000000000000000000000000000000000000000000000000008152600401612077906134c1565b60405180910390fd5b33600960008273ffffffffffffffffffffffffffffffffffffffff1673ffffffffffffffffffffffffffffffffffffffff16815260200190815260200160002060009054906101000a900460ff1661210d576040517f08c379a000000000000000000000000000000000000000000000000000000000815260040161210490613911565b60405180910390fd5b6000600560003373ffffffffffffffffffffffffffffffffffffffff1673ffffffffffffffffffffffffffffffffffffffff16815260200190815260200160002090508881600001819055508781600101908161216a919061317d565b5086816002018190555085816003019081612185919061317d565b5084816004019081612197919061317d565b50838160050190816121a9919061317d565b50828160060190816121bb919061317d565b50505050505050505050565b600860003373ffffffffffffffffffffffffffffffffffffffff1673ffffffffffffffffffffffffffffffffffffffff16815260200190815260200160002060009054906101000a900460ff16612253576040517f08c379a000000000000000000000000000000000000000000000000000000000815260040161224a90613553565b60405180910390fd5b33600860008273ffffffffffffffffffffffffffffffffffffffff1673ffffffffffffffffffffffffffffffffffffffff16815260200190815260200160002060009054906101000a900460ff166122e0576040517f08c379a00000000000000000000000000000000000000000000000000000000081526004016122d79061397d565b60405180910390fd5b6000600460003373ffffffffffffffffffffffffffffffffffffffff1673ffffffffffffffffffffffffffffffffffffffff168152602001908152602001600020905060006123368c8c8c8c8c8c8c8c8c611e4c565b90508082600001540361237e576040517f08c379a00000000000000000000000000000000000000000000000000000000081526004016123759061362b565b60405180910390fd5b808260000181905550505050505050505050505050565b600082825260208201905092915050565b7f4574686572206e6f742061636365707465640000000000000000000000000000600082015250565b60006123dc601283612395565b91506123e7826123a6565b602082019050919050565b6000602082019050818103600083015261240b816123cf565b9050919050565b7f46616c6c6261636b2066756e6374696f6e206e6f7420616c6c6f776564000000600082015250565b6000612448601d83612395565b915061245382612412565b602082019050919050565b600060208201905081810360008301526124778161243b565b9050919050565b6000604051905090565b600080fd5b600080fd5b600073ffffffffffffffffffffffffffffffffffffffff82169050919050565b60006124bd82612492565b9050919050565b6124cd816124b2565b81146124d857600080fd5b50565b6000813590506124ea816124c4565b92915050565b60006020828403121561250657612505612488565b5b6000612514848285016124db565b91505092915050565b6000819050919050565b6125308161251d565b82525050565b6000819050919050565b61254981612536565b82525050565b60006040820190506125646000830185612527565b6125716020830184612540565b9392505050565b61258181612536565b811461258c57600080fd5b50565b60008135905061259e81612578565b92915050565b6000602082840312156125ba576125b9612488565b5b60006125c88482850161258f565b91505092915050565b6125da816124b2565b82525050565b60006020820190506125f560008301846125d1565b92915050565b600081519050919050565b600082825260208201905092915050565b6000819050602082019050919050565b612630816124b2565b82525050565b60006126428383612627565b60208301905092915050565b6000602082019050919050565b6000612666826125fb565b6126708185612606565b935061267b83612617565b8060005b838110156126ac5781516126938882612636565b975061269e8361264e565b92505060018101905061267f565b5085935050505092915050565b600060208201905081810360008301526126d3818461265b565b905092915050565b600080fd5b600080fd5b6000601f19601f8301169050919050565b7f4e487b7100000000000000000000000000000000000000000000000000000000600052604160045260246000fd5b61272e826126e5565b810181811067ffffffffffffffff8211171561274d5761274c6126f6565b5b80604052505050565b600061276061247e565b905061276c8282612725565b919050565b600067ffffffffffffffff82111561278c5761278b6126f6565b5b612795826126e5565b9050602081019050919050565b82818337600083830152505050565b60006127c46127bf84612771565b612756565b9050828152602081018484840111156127e0576127df6126e0565b5b6127eb8482856127a2565b509392505050565b600082601f830112612808576128076126db565b5b81356128188482602086016127b1565b91505092915050565b600080600080600080600060e0888a0312156128405761283f612488565b5b600061284e8a828b016124db565b975050602088013567ffffffffffffffff81111561286f5761286e61248d565b5b61287b8a828b016127f3565b965050604088013567ffffffffffffffff81111561289c5761289b61248d565b5b6128a88a828b016127f3565b955050606088013567ffffffffffffffff8111156128c9576128c861248d565b5b6128d58a828b016127f3565b945050608088013567ffffffffffffffff8111156128f6576128f561248d565b5b6129028a828b016127f3565b93505060a088013567ffffffffffffffff8111156129235761292261248d565b5b61292f8a828b016127f3565b92505060c088013567ffffffffffffffff8111156129505761294f61248d565b5b61295c8a828b016127f3565b91505092959891949750929550565b600080600080600080600060e0888a03121561298a57612989612488565b5b60006129988a828b0161258f565b975050602088013567ffffffffffffffff8111156129b9576129b861248d565b5b6129c58a828b016127f3565b96505060406129d68a828b0161258f565b955050606088013567ffffffffffffffff8111156129f7576129f661248d565b5b612a038a828b016127f3565b945050608088013567ffffffffffffffff811115612a2457612a2361248d565b5b612a308a828b016127f3565b93505060a088013567ffffffffffffffff811115612a5157612a5061248d565b5b612a5d8a828b016127f3565b92505060c088013567ffffffffffffffff811115612a7e57612a7d61248d565b5b612a8a8a828b016127f3565b91505092959891949750929550565b60008115159050919050565b612aae81612a99565b82525050565b6000602082019050612ac96000830184612aa5565b92915050565b60008060008060008060008060006101208a8c031215612af257612af1612488565b5b6000612b008c828d0161258f565b99505060208a013567ffffffffffffffff811115612b2157612b2061248d565b5b612b2d8c828d016127f3565b9850506040612b3e8c828d0161258f565b97505060608a013567ffffffffffffffff811115612b5f57612b5e61248d565b5b612b6b8c828d016127f3565b96505060808a013567ffffffffffffffff811115612b8c57612b8b61248d565b5b612b988c828d016127f3565b95505060a08a013567ffffffffffffffff811115612bb957612bb861248d565b5b612bc58c828d016127f3565b94505060c08a013567ffffffffffffffff811115612be657612be561248d565b5b612bf28c828d016127f3565b93505060e08a013567ffffffffffffffff811115612c1357612c1261248d565b5b612c1f8c828d016127f3565b9250506101008a013567ffffffffffffffff811115612c4157612c4061248d565b5b612c4d8c828d016127f3565b9150509295985092959850929598565b6000602082019050612c726000830184612540565b92915050565b600081519050919050565b60005b83811015612ca1578082015181840152602081019050612c86565b60008484015250505050565b6000612cb882612c78565b612cc28185612395565b9350612cd2818560208601612c83565b612cdb816126e5565b840191505092915050565b600061012082019050612cfc600083018c6125d1565b612d09602083018b6125d1565b8181036040830152612d1b818a612cad565b90508181036060830152612d2f8189612cad565b90508181036080830152612d438188612cad565b905081810360a0830152612d578187612cad565b905081810360c0830152612d6b8186612cad565b905081810360e0830152612d7f8185612cad565b9050612d8f610100830184612540565b9a9950505050505050505050565b60008060408385031215612db457612db3612488565b5b6000612dc2858286016124db565b9250506020612dd3858286016124db565b9150509250929050565b600061010082019050612df3600083018b612540565b8181036020830152612e05818a612cad565b9050612e146040830189612540565b8181036060830152612e268188612cad565b90508181036080830152612e3a8187612cad565b905081810360a0830152612e4e8186612cad565b905081810360c0830152612e628185612cad565b9050612e7160e0830184612540565b9998505050505050505050565b6000602082019050612e936000830184612527565b92915050565b7f4e6f2070617469656e747320666f756e64000000000000000000000000000000600082015250565b6000612ecf601183612395565b9150612eda82612e99565b602082019050919050565b60006020820190508181036000830152612efe81612ec2565b9050919050565b7f44617465206d7573742062652070726f76696465640000000000000000000000600082015250565b6000612f3b601583612395565b9150612f4682612f05565b602082019050919050565b60006020820190508181036000830152612f6a81612f2e565b9050919050565b7f4e487b7100000000000000000000000000000000000000000000000000000000600052602260045260246000fd5b60006002820490506001821680612fb857607f821691505b602082108103612fcb57612fca612f71565b5b50919050565b60008190508160005260206000209050919050565b60006020601f8301049050919050565b600082821b905092915050565b6000600883026130337fffffffffffffffffffffffffffffffffffffffffffffffffffffffffffffffff82612ff6565b61303d8683612ff6565b95508019841693508086168417925050509392505050565b6000819050919050565b600061307a61307561307084612536565b613055565b612536565b9050919050565b6000819050919050565b6130948361305f565b6130a86130a082613081565b848454613003565b825550505050565b600090565b6130bd6130b0565b6130c881848461308b565b505050565b5b818110156130ec576130e16000826130b5565b6001810190506130ce565b5050565b601f8211156131315761310281612fd1565b61310b84612fe6565b8101602085101561311a578190505b61312e61312685612fe6565b8301826130cd565b50505b505050565b600082821c905092915050565b600061315460001984600802613136565b1980831691505092915050565b600061316d8383613143565b9150826002028217905092915050565b61318682612c78565b67ffffffffffffffff81111561319f5761319e6126f6565b5b6131a98254612fa0565b6131b48282856130f0565b600060209050601f8311600181146131e757600084156131d5578287015190505b6131df8582613161565b865550613247565b601f1984166131f586612fd1565b60005b8281101561321d578489015182556001820191506020850194506020810190506131f8565b8683101561323a5784890151613236601f891682613143565b8355505b6001600288020188555050505b505050505050565b7f4e487b7100000000000000000000000000000000000000000000000000000000600052601160045260246000fd5b600061328982612536565b91507fffffffffffffffffffffffffffffffffffffffffffffffffffffffffffffffff82036132bb576132ba61324f565b5b600182019050919050565b600060c08201905081810360008301526132e08189612cad565b905081810360208301526132f48188612cad565b905081810360408301526133088187612cad565b9050818103606083015261331c8186612cad565b905081810360808301526133308185612cad565b905081810360a08301526133448184612cad565b9050979650505050505050565b7f446f63746f722064657461696c7320616c726561647920736574000000000000600082015250565b6000613387601a83612395565b915061339282613351565b602082019050919050565b600060208201905081810360008301526133b68161337a565b9050919050565b600060e0820190506133d2600083018a612540565b81810360208301526133e48189612cad565b90506133f36040830188612540565b81810360608301526134058187612cad565b905081810360808301526134198186612cad565b905081810360a083015261342d8185612cad565b905081810360c08301526134418184612cad565b905098975050505050505050565b7f4f6e6c7920646f63746f72732063616e2063616c6c20746869732066756e637460008201527f696f6e0000000000000000000000000000000000000000000000000000000000602082015250565b60006134ab602383612395565b91506134b68261344f565b604082019050919050565b600060208201905081810360008301526134da8161349e565b9050919050565b7f4f6e6c792070617469656e74732063616e2063616c6c20746869732066756e6360008201527f74696f6e00000000000000000000000000000000000000000000000000000000602082015250565b600061353d602483612395565b9150613548826134e1565b604082019050919050565b6000602082019050818103600083015261356c81613530565b9050919050565b7f50617469656e742064657461696c7320616c7265616479207365740000000000600082015250565b60006135a9601b83612395565b91506135b482613573565b602082019050919050565b600060208201905081810360008301526135d88161359c565b9050919050565b7f4e6f206368616e67657320746f2070617469656e742064657461696c73000000600082015250565b6000613615601d83612395565b9150613620826135df565b602082019050919050565b6000602082019050818103600083015261364481613608565b9050919050565b600061012082019050613661600083018c612540565b8181036020830152613673818b612cad565b9050613682604083018a612540565b81810360608301526136948189612cad565b905081810360808301526136a88188612cad565b905081810360a08301526136bc8187612cad565b905081810360c08301526136d08186612cad565b905081810360e08301526136e48185612cad565b90508181036101008301526136f98184612cad565b90509a9950505050505050505050565b7f4e6f206170706f696e746d656e747320666f756e640000000000000000000000600082015250565b600061373f601583612395565b915061374a82613709565b602082019050919050565b6000602082019050818103600083015261376e81613732565b9050919050565b6000819050919050565b61379061378b82612536565b613775565b82525050565b600081905092915050565b60006137ac82612c78565b6137b68185613796565b93506137c6818560208601612c83565b80840191505092915050565b60006137de828c61377f565b6020820191506137ee828b6137a1565b91506137fa828a61377f565b60208201915061380a82896137a1565b915061381682886137a1565b915061382282876137a1565b915061382e82866137a1565b915061383a82856137a1565b915061384682846137a1565b91508190509a9950505050505050505050565b7f4e6f20646f63746f727320666f756e6400000000000000000000000000000000600082015250565b600061388f601083612395565b915061389a82613859565b602082019050919050565b600060208201905081810360008301526138be81613882565b9050919050565b7f446f63746f7220646f6573206e6f742065786973740000000000000000000000600082015250565b60006138fb601583612395565b9150613906826138c5565b602082019050919050565b6000602082019050818103600083015261392a816138ee565b9050919050565b7f50617469656e7420646f6573206e6f7420657869737400000000000000000000600082015250565b6000613967601683612395565b915061397282613931565b602082019050919050565b600060208201905081810360008301526139968161395a565b905091905056fea2646970667358221220b3c166ee3b6d8e76b237b3b1542bb3cf83f5ec2ca878e5224fcf5979e854639764736f6c63430008130033",
  "linkReferences": {},
  "deployedLinkReferences": {}
}