{
  "_format": "hh-sol-artifact-1",
  "contractName": "MedicalRecord",
  "sourceName": "contracts/MedicalRecord.sol",
  "abi": [
    {
      "inputs": [],
      "stateMutability": "nonpayable",
      "type": "constructor",
      "name": "getValue"
    },
    {
      "anonymous": false,
      "inputs": [
        {
          "indexed": true,
          "internalType": "address",
          "name": "patientAddress",
          "type": "address"
        },
        {
          "indexed": true,
          "internalType": "address",
          "name": "doctorAddress",
          "type": "address"
        },
        {
          "indexed": false,
          "internalType": "string",
          "name": "date",
          "type": "string"
        },
        {
          "indexed": false,
          "internalType": "string",
          "name": "time",
          "type": "string"
        },
        {
          "indexed": false,
          "internalType": "string",
          "name": "diagnosis",
          "type": "string"
        },
        {
          "indexed": false,
          "internalType": "string",
          "name": "prescription",
          "type": "string"
        },
        {
          "indexed": false,
          "internalType": "string",
          "name": "description",
          "type": "string"
        },
        {
          "indexed": false,
          "internalType": "string",
          "name": "status",
          "type": "string"
        }
      ],
      "name": "AppointmentSet",
      "type": "event"
    },
    {
      "anonymous": false,
      "inputs": [
        {
          "indexed": true,
          "internalType": "address",
          "name": "doctorAddress",
          "type": "address"
        },
        {
          "indexed": false,
          "internalType": "uint256",
          "name": "ic",
          "type": "uint256"
        },
        {
          "indexed": false,
          "internalType": "string",
          "name": "name",
          "type": "string"
        },
        {
          "indexed": false,
          "internalType": "uint256",
          "name": "phone",
          "type": "uint256"
        },
        {
          "indexed": false,
          "internalType": "string",
          "name": "gender",
          "type": "string"
        },
        {
          "indexed": false,
          "internalType": "string",
          "name": "dob",
          "type": "string"
        },
        {
          "indexed": false,
          "internalType": "string",
          "name": "qualification",
          "type": "string"
        },
        {
          "indexed": false,
          "internalType": "string",
          "name": "major",
          "type": "string"
        }
      ],
      "name": "DoctorDetailsSet",
      "type": "event"
    },
    {
      "anonymous": false,
      "inputs": [
        {
          "indexed": true,
          "internalType": "address",
          "name": "patientAddress",
          "type": "address"
        },
        {
          "indexed": false,
          "internalType": "uint256",
          "name": "ssn",
          "type": "uint256"
        },
        {
          "indexed": false,
          "internalType": "string",
          "name": "name",
          "type": "string"
        },
        {
          "indexed": false,
          "internalType": "uint256",
          "name": "phone",
          "type": "uint256"
        },
        {
          "indexed": false,
          "internalType": "string",
          "name": "gender",
          "type": "string"
        },
        {
          "indexed": false,
          "internalType": "string",
          "name": "dob",
          "type": "string"
        },
        {
          "indexed": false,
          "internalType": "string",
          "name": "homeaddr",
          "type": "string"
        },
        {
          "indexed": false,
          "internalType": "string",
          "name": "bloodgroup",
          "type": "string"
        },
        {
          "indexed": false,
          "internalType": "string",
          "name": "allergies",
          "type": "string"
        },
        {
          "indexed": false,
          "internalType": "string",
          "name": "medication",
          "type": "string"
        }
      ],
      "name": "PatientDetailsSet",
      "type": "event"
    },
    {
      "anonymous": false,
      "inputs": [
        {
          "indexed": true,
          "internalType": "address",
          "name": "patientAddress",
          "type": "address"
        },
        {
          "indexed": true,
          "internalType": "address",
          "name": "grantedAddress",
          "type": "address"
        }
      ],
      "name": "PermissionGranted",
      "type": "event"
    },
    {
      "anonymous": false,
      "inputs": [
        {
          "indexed": true,
          "internalType": "address",
          "name": "patientAddress",
          "type": "address"
        },
        {
          "indexed": true,
          "internalType": "address",
          "name": "revokedAddress",
          "type": "address"
        }
      ],
      "name": "PermissionRevoked",
      "type": "event"
    },
    {
      "stateMutability": "payable",
      "type": "fallback"
    },
    {
      "inputs": [],
      "name": "appointmentCount",
      "outputs": [
        {
          "internalType": "uint256",
          "name": "",
          "type": "uint256"
        }
      ],
      "stateMutability": "view",
      "type": "function"
    },
    {
      "inputs": [
        {
          "internalType": "uint256",
          "name": "",
          "type": "uint256"
        }
      ],
      "name": "appointmentList",
      "outputs": [
        {
          "internalType": "address",
          "name": "",
          "type": "address"
        }
      ],
      "stateMutability": "view",
      "type": "function"
    },
    {
      "inputs": [
        {
          "internalType": "address",
          "name": "",
          "type": "address"
        }
      ],
      "name": "appointments",
      "outputs": [
        {
          "internalType": "address",
          "name": "doctorAddr",
          "type": "address"
        },
        {
          "internalType": "address",
          "name": "patientAddr",
          "type": "address"
        },
        {
          "internalType": "string",
          "name": "date",
          "type": "string"
        },
        {
          "internalType": "string",
          "name": "time",
          "type": "string"
        },
        {
          "internalType": "string",
          "name": "prescription",
          "type": "string"
        },
        {
          "internalType": "string",
          "name": "description",
          "type": "string"
        },
        {
          "internalType": "string",
          "name": "diagnosis",
          "type": "string"
        },
        {
          "internalType": "string",
          "name": "status",
          "type": "string"
        },
        {
          "internalType": "uint256",
          "name": "creationDate",
          "type": "uint256"
        }
      ],
      "stateMutability": "view",
      "type": "function"
    },
    {
      "inputs": [
        {
          "internalType": "address",
          "name": "",
          "type": "address"
        }
      ],
      "name": "appointmentsPerPatient",
      "outputs": [
        {
          "internalType": "uint256",
          "name": "",
          "type": "uint256"
        }
      ],
      "stateMutability": "view",
      "type": "function"
    },
    {
      "inputs": [],
      "name": "doctorCount",
      "outputs": [
        {
          "internalType": "uint256",
          "name": "",
          "type": "uint256"
        }
      ],
      "stateMutability": "view",
      "type": "function"
    },
    {
      "inputs": [
        {
          "internalType": "uint256",
          "name": "",
          "type": "uint256"
        }
      ],
      "name": "doctorList",
      "outputs": [
        {
          "internalType": "address",
          "name": "",
          "type": "address"
        }
      ],
      "stateMutability": "view",
      "type": "function"
    },
    {
      "inputs": [
        {
          "internalType": "address",
          "name": "",
          "type": "address"
        }
      ],
      "name": "doctors",
      "outputs": [
        {
          "internalType": "uint256",
          "name": "ic",
          "type": "uint256"
        },
        {
          "internalType": "string",
          "name": "name",
          "type": "string"
        },
        {
          "internalType": "uint256",
          "name": "phone",
          "type": "uint256"
        },
        {
          "internalType": "string",
          "name": "gender",
          "type": "string"
        },
        {
          "internalType": "string",
          "name": "dob",
          "type": "string"
        },
        {
          "internalType": "string",
          "name": "qualification",
          "type": "string"
        },
        {
          "internalType": "string",
          "name": "major",
          "type": "string"
        },
        {
          "internalType": "uint256",
          "name": "date",
          "type": "uint256"
        }
      ],
      "stateMutability": "view",
      "type": "function"
    },
    {
      "inputs": [
        {
          "internalType": "uint256",
          "name": "_ssn",
          "type": "uint256"
        },
        {
          "internalType": "string",
          "name": "_name",
          "type": "string"
        },
        {
          "internalType": "uint256",
          "name": "_phone",
          "type": "uint256"
        },
        {
          "internalType": "string",
          "name": "_gender",
          "type": "string"
        },
        {
          "internalType": "string",
          "name": "_dob",
          "type": "string"
        },
        {
          "internalType": "string",
          "name": "_homeaddr",
          "type": "string"
        },
        {
          "internalType": "string",
          "name": "_bloodgroup",
          "type": "string"
        },
        {
          "internalType": "string",
          "name": "_allergies",
          "type": "string"
        },
        {
          "internalType": "string",
          "name": "_medication",
          "type": "string"
        }
      ],
      "name": "editDetails",
      "outputs": [],
      "stateMutability": "nonpayable",
      "type": "function"
    },
    {
      "inputs": [
        {
          "internalType": "uint256",
          "name": "_ic",
          "type": "uint256"
        },
        {
          "internalType": "string",
          "name": "_name",
          "type": "string"
        },
        {
          "internalType": "uint256",
          "name": "_phone",
          "type": "uint256"
        },
        {
          "internalType": "string",
          "name": "_gender",
          "type": "string"
        },
        {
          "internalType": "string",
          "name": "_dob",
          "type": "string"
        },
        {
          "internalType": "string",
          "name": "_qualification",
          "type": "string"
        },
        {
          "internalType": "string",
          "name": "_major",
          "type": "string"
        }
      ],
      "name": "editDoctor",
      "outputs": [],
      "stateMutability": "nonpayable",
      "type": "function"
    },
    {
      "inputs": [],
      "name": "getAppointments",
      "outputs": [
        {
          "internalType": "address[]",
          "name": "",
          "type": "address[]"
        }
      ],
      "stateMutability": "view",
      "type": "function"
    },
    {
      "inputs": [],
      "name": "getDoctors",
      "outputs": [
        {
          "internalType": "address[]",
          "name": "",
          "type": "address[]"
        }
      ],
      "stateMutability": "view",
      "type": "function"
    },
    {
      "inputs": [],
      "name": "getPatients",
      "outputs": [
        {
          "internalType": "address[]",
          "name": "",
          "type": "address[]"
        }
      ],
      "stateMutability": "view",
      "type": "function"
    },
    {
      "inputs": [
        {
          "internalType": "address",
          "name": "_address",
          "type": "address"
        }
      ],
      "name": "givePermission",
      "outputs": [
        {
          "internalType": "bool",
          "name": "success",
          "type": "bool"
        }
      ],
      "stateMutability": "nonpayable",
      "type": "function"
    },
    {
      "inputs": [
        {
          "internalType": "uint256",
          "name": "_ssn",
          "type": "uint256"
        },
        {
          "internalType": "string",
          "name": "_name",
          "type": "string"
        },
        {
          "internalType": "uint256",
          "name": "_phone",
          "type": "uint256"
        },
        {
          "internalType": "string",
          "name": "_gender",
          "type": "string"
        },
        {
          "internalType": "string",
          "name": "_dob",
          "type": "string"
        },
        {
          "internalType": "string",
          "name": "_homeaddr",
          "type": "string"
        },
        {
          "internalType": "string",
          "name": "_bloodgroup",
          "type": "string"
        },
        {
          "internalType": "string",
          "name": "_allergies",
          "type": "string"
        },
        {
          "internalType": "string",
          "name": "_medication",
          "type": "string"
        }
      ],
      "name": "hashPatientData",
      "outputs": [
        {
          "internalType": "bytes32",
          "name": "",
          "type": "bytes32"
        }
      ],
      "stateMutability": "pure",
      "type": "function"
    },
    {
      "inputs": [
        {
          "internalType": "address",
          "name": "",
          "type": "address"
        },
        {
          "internalType": "address",
          "name": "",
          "type": "address"
        }
      ],
      "name": "isApproved",
      "outputs": [
        {
          "internalType": "bool",
          "name": "",
          "type": "bool"
        }
      ],
      "stateMutability": "view",
      "type": "function"
    },
    {
      "inputs": [
        {
          "internalType": "address",
          "name": "",
          "type": "address"
        }
      ],
      "name": "isDoctor",
      "outputs": [
        {
          "internalType": "bool",
          "name": "",
          "type": "bool"
        }
      ],
      "stateMutability": "view",
      "type": "function"
    },
    {
      "inputs": [
        {
          "internalType": "address",
          "name": "",
          "type": "address"
        }
      ],
      "name": "isPatient",
      "outputs": [
        {
          "internalType": "bool",
          "name": "",
          "type": "bool"
        }
      ],
      "stateMutability": "view",
      "type": "function"
    },
    {
      "inputs": [],
      "name": "owner",
      "outputs": [
        {
          "internalType": "address",
          "name": "",
          "type": "address"
        }
      ],
      "stateMutability": "view",
      "type": "function"
    },
    {
      "inputs": [],
      "name": "patientCount",
      "outputs": [
        {
          "internalType": "uint256",
          "name": "",
          "type": "uint256"
        }
      ],
      "stateMutability": "view",
      "type": "function"
    },
    {
      "inputs": [
        {
          "internalType": "uint256",
          "name": "",
          "type": "uint256"
        }
      ],
      "name": "patientList",
      "outputs": [
        {
          "internalType": "address",
          "name": "",
          "type": "address"
        }
      ],
      "stateMutability": "view",
      "type": "function"
    },
    {
      "inputs": [
        {
          "internalType": "address",
          "name": "",
          "type": "address"
        }
      ],
      "name": "patients",
      "outputs": [
        {
          "internalType": "bytes32",
          "name": "hashedData",
          "type": "bytes32"
        },
        {
          "internalType": "uint256",
          "name": "date",
          "type": "uint256"
        }
      ],
      "stateMutability": "view",
      "type": "function"
    },
    {
      "inputs": [],
      "name": "permissionGrantedCount",
      "outputs": [
        {
          "internalType": "uint256",
          "name": "",
          "type": "uint256"
        }
      ],
      "stateMutability": "view",
      "type": "function"
    },
    {
      "inputs": [
        {
          "internalType": "address",
          "name": "_address",
          "type": "address"
        }
      ],
      "name": "revokePermission",
      "outputs": [
        {
          "internalType": "bool",
          "name": "success",
          "type": "bool"
        }
      ],
      "stateMutability": "nonpayable",
      "type": "function"
    },
    {
      "inputs": [
        {
          "internalType": "address",
          "name": "_addr",
          "type": "address"
        },
        {
          "internalType": "string",
          "name": "_date",
          "type": "string"
        },
        {
          "internalType": "string",
          "name": "_time",
          "type": "string"
        },
        {
          "internalType": "string",
          "name": "_diagnosis",
          "type": "string"
        },
        {
          "internalType": "string",
          "name": "_prescription",
          "type": "string"
        },
        {
          "internalType": "string",
          "name": "_description",
          "type": "string"
        },
        {
          "internalType": "string",
          "name": "_status",
          "type": "string"
        }
      ],
      "name": "setAppointment",
      "outputs": [],
      "stateMutability": "nonpayable",
      "type": "function"
    },
    {
      "inputs": [
        {
          "internalType": "uint256",
          "name": "_ssn",
          "type": "uint256"
        },
        {
          "internalType": "string",
          "name": "_name",
          "type": "string"
        },
        {
          "internalType": "uint256",
          "name": "_phone",
          "type": "uint256"
        },
        {
          "internalType": "string",
          "name": "_gender",
          "type": "string"
        },
        {
          "internalType": "string",
          "name": "_dob",
          "type": "string"
        },
        {
          "internalType": "string",
          "name": "_homeaddr",
          "type": "string"
        },
        {
          "internalType": "string",
          "name": "_bloodgroup",
          "type": "string"
        },
        {
          "internalType": "string",
          "name": "_allergies",
          "type": "string"
        },
        {
          "internalType": "string",
          "name": "_medication",
          "type": "string"
        }
      ],
      "name": "setDetails",
      "outputs": [],
      "stateMutability": "nonpayable",
      "type": "function"
    },
    {
      "inputs": [
        {
          "internalType": "uint256",
          "name": "_ic",
          "type": "uint256"
        },
        {
          "internalType": "string",
          "name": "_name",
          "type": "string"
        },
        {
          "internalType": "uint256",
          "name": "_phone",
          "type": "uint256"
        },
        {
          "internalType": "string",
          "name": "_gender",
          "type": "string"
        },
        {
          "internalType": "string",
          "name": "_dob",
          "type": "string"
        },
        {
          "internalType": "string",
          "name": "_qualification",
          "type": "string"
        },
        {
          "internalType": "string",
          "name": "_major",
          "type": "string"
        }
      ],
      "name": "setDoctor",
      "outputs": [],
      "stateMutability": "nonpayable",
      "type": "function"
    },
    {
      "inputs": [
        {
          "internalType": "address",
          "name": "_addr",
          "type": "address"
        },
        {
          "internalType": "string",
          "name": "_date",
          "type": "string"
        },
        {
          "internalType": "string",
          "name": "_time",
          "type": "string"
        },
        {
          "internalType": "string",
          "name": "_diagnosis",
          "type": "string"
        },
        {
          "internalType": "string",
          "name": "_prescription",
          "type": "string"
        },
        {
          "internalType": "string",
          "name": "_description",
          "type": "string"
        },
        {
          "internalType": "string",
          "name": "_status",
          "type": "string"
        }
      ],
      "name": "updateAppointment",
      "outputs": [],
      "stateMutability": "nonpayable",
      "type": "function"
    },
    {
      "stateMutability": "payable",
      "type": "receive"
    }
  ],
  "bytecode": "0x608060405234801561001057600080fd5b50336000806101000a81548173ffffffffffffffffffffffffffffffffffffffff021916908373ffffffffffffffffffffffffffffffffffffffff1602179055506001600860003373ffffffffffffffffffffffffffffffffffffffff1673ffffffffffffffffffffffffffffffffffffffff16815260200190815260200160002060006101000a81548160ff0219169083151502179055506137b7806100b86000396000f3fe6080604052600436106101a05760003560e01c8063996440c6116100ec578063b13d5d941161008a578063e6fce0d211610064578063e6fce0d2146106d8578063eebc3fb214610715578063f992eca214610740578063fda801fb14610769576101e0565b8063b13d5d9414610645578063babb1d4114610670578063c0cb24ba146106ad576101e0565b8063a389783e116100c6578063a389783e1461054a578063a3bf5b9a14610587578063a9583c22146105c4578063a9ab5e9a14610608576101e0565b8063996440c6146104a55780639d3bb37c146104e2578063a0303c411461051f576101e0565b80633d391f70116101595780637a7d8f63116101335780637a7d8f63146103cd5780638da5cb5b146104125780638f9c79ed1461043d57806396b80d081461047a576101e0565b80633d391f701461033c5780634af6932c1461037957806378522bc4146103a2576101e0565b80630869cfbc1461021b578063127ca4b41461025957806312ad1c3714610296578063245f9686146102c1578063254c549d146102ea578063261b73f314610313576101e0565b366101e0576040517f08c379a00000000000000000000000000000000000000000000000000000000081526004016101d79061231a565b60405180910390fd5b6040517f08c379a000000000000000000000000000000000000000000000000000000000815260040161021290612386565b60405180910390fd5b34801561022757600080fd5b50610242600480360381019061023d9190612418565b610792565b604051610250929190612477565b60405180910390f35b34801561026557600080fd5b50610280600480360381019061027b91906124cc565b6107b6565b60405161028d9190612508565b60405180910390f35b3480156102a257600080fd5b506102ab6107f5565b6040516102b891906125e1565b60405180910390f35b3480156102cd57600080fd5b506102e860048036038101906102e39190612749565b610883565b005b3480156102f657600080fd5b50610311600480360381019061030c9190612893565b610b4e565b005b34801561031f57600080fd5b5061033a60048036038101906103359190612749565b610dca565b005b34801561034857600080fd5b50610363600480360381019061035e9190612418565b610f95565b60405161037091906129dc565b60405180910390f35b34801561038557600080fd5b506103a0600480360381019061039b91906129f7565b611133565b005b3480156103ae57600080fd5b506103b7611443565b6040516103c49190612b85565b60405180910390f35b3480156103d957600080fd5b506103f460048036038101906103ef9190612418565b611449565b60405161040999989796959493929190612c0e565b60405180910390f35b34801561041e57600080fd5b50610427611807565b6040516104349190612508565b60405180910390f35b34801561044957600080fd5b50610464600480360381019061045f9190612418565b61182b565b60405161047191906129dc565b60405180910390f35b34801561048657600080fd5b5061048f61184b565b60405161049c91906125e1565b60405180910390f35b3480156104b157600080fd5b506104cc60048036038101906104c79190612418565b6118d9565b6040516104d991906129dc565b60405180910390f35b3480156104ee57600080fd5b5061050960048036038101906105049190612418565b6118f9565b6040516105169190612b85565b60405180910390f35b34801561052b57600080fd5b50610534611911565b6040516105419190612b85565b60405180910390f35b34801561055657600080fd5b50610571600480360381019061056c9190612cc5565b611917565b60405161057e91906129dc565b60405180910390f35b34801561059357600080fd5b506105ae60048036038101906105a99190612418565b611946565b6040516105bb91906129dc565b60405180910390f35b3480156105d057600080fd5b506105eb60048036038101906105e69190612418565b611acc565b6040516105ff989796959493929190612d05565b60405180910390f35b34801561061457600080fd5b5061062f600480360381019061062a91906129f7565b611dbc565b60405161063c9190612da6565b60405180910390f35b34801561065157600080fd5b5061065a611e04565b60405161066791906125e1565b60405180910390f35b34801561067c57600080fd5b50610697600480360381019061069291906124cc565b611e92565b6040516106a49190612508565b60405180910390f35b3480156106b957600080fd5b506106c2611ed1565b6040516106cf9190612b85565b60405180910390f35b3480156106e457600080fd5b506106ff60048036038101906106fa91906124cc565b611ed7565b60405161070c9190612508565b60405180910390f35b34801561072157600080fd5b5061072a611f16565b6040516107379190612b85565b60405180910390f35b34801561074c57600080fd5b5061076760048036038101906107629190612893565b611f1c565b005b34801561077557600080fd5b50610790600480360381019061078b91906129f7565b6120ef565b005b60046020528060005260406000206000915090508060000154908060010154905082565b600281815481106107c657600080fd5b906000526020600020016000915054906101000a900473ffffffffffffffffffffffffffffffffffffffff1681565b6060600180548060200260200160405190810160405280929190818152602001828054801561087957602002820191906000526020600020905b8160009054906101000a900473ffffffffffffffffffffffffffffffffffffffff1673ffffffffffffffffffffffffffffffffffffffff168152602001906001019080831161082f575b5050505050905090565b60008651116108c7576040517f08c379a00000000000000000000000000000000000000000000000000000000081526004016108be90612e0d565b60405180910390fd5b6000600660008973ffffffffffffffffffffffffffffffffffffffff1673ffffffffffffffffffffffffffffffffffffffff1681526020019081526020016000209050338160000160006101000a81548173ffffffffffffffffffffffffffffffffffffffff021916908373ffffffffffffffffffffffffffffffffffffffff160217905550878160010160006101000a81548173ffffffffffffffffffffffffffffffffffffffff021916908373ffffffffffffffffffffffffffffffffffffffff160217905550868160020190816109a19190613039565b50858160030190816109b39190613039565b50848160060190816109c59190613039565b50838160040190816109d79190613039565b50828160050190816109e99190613039565b50818160070190816109fb9190613039565b504281600801819055506003889080600181540180825580915050600190039060005260206000200160009091909190916101000a81548173ffffffffffffffffffffffffffffffffffffffff021916908373ffffffffffffffffffffffffffffffffffffffff160217905550600d6000815480929190610a7b9061313a565b9190505550600a60008973ffffffffffffffffffffffffffffffffffffffff1673ffffffffffffffffffffffffffffffffffffffff1681526020019081526020016000206000815480929190610ad09061313a565b91905055503373ffffffffffffffffffffffffffffffffffffffff168873ffffffffffffffffffffffffffffffffffffffff167fafd67ab4aa29deb907ea34bb24f85a544c864252668e58e93a8c0b7ea0be8342898989898989604051610b3c96959493929190613182565b60405180910390a35050505050505050565b600960003373ffffffffffffffffffffffffffffffffffffffff1673ffffffffffffffffffffffffffffffffffffffff16815260200190815260200160002060009054906101000a900460ff1615610bdb576040517f08c379a0000000000000000000000000000000000000000000000000000000008152600401610bd290613259565b60405180910390fd5b6000600560003373ffffffffffffffffffffffffffffffffffffffff1673ffffffffffffffffffffffffffffffffffffffff168152602001908152602001600020905087816000018190555086816001019081610c389190613039565b5085816002018190555084816003019081610c539190613039565b5083816004019081610c659190613039565b5082816005019081610c779190613039565b5081816006019081610c899190613039565b504281600701819055506002339080600181540180825580915050600190039060005260206000200160009091909190916101000a81548173ffffffffffffffffffffffffffffffffffffffff021916908373ffffffffffffffffffffffffffffffffffffffff1602179055506001600960003373ffffffffffffffffffffffffffffffffffffffff1673ffffffffffffffffffffffffffffffffffffffff16815260200190815260200160002060006101000a81548160ff021916908315150217905550600c6000815480929190610d619061313a565b91905055503373ffffffffffffffffffffffffffffffffffffffff167fe27a1b1f0cae77411801aff01efb3b01d017e2df468a2dd3e70bb4d35f6c4f3489898989898989604051610db89796959493929190613279565b60405180910390a25050505050505050565b600960003373ffffffffffffffffffffffffffffffffffffffff1673ffffffffffffffffffffffffffffffffffffffff16815260200190815260200160002060009054906101000a900460ff16610e56576040517f08c379a0000000000000000000000000000000000000000000000000000000008152600401610e4d9061337d565b60405180910390fd5b6000600660008973ffffffffffffffffffffffffffffffffffffffff1673ffffffffffffffffffffffffffffffffffffffff1681526020019081526020016000209050338160000160006101000a81548173ffffffffffffffffffffffffffffffffffffffff021916908373ffffffffffffffffffffffffffffffffffffffff160217905550878160010160006101000a81548173ffffffffffffffffffffffffffffffffffffffff021916908373ffffffffffffffffffffffffffffffffffffffff16021790555086816002019081610f309190613039565b5085816003019081610f429190613039565b5084816006019081610f549190613039565b5083816004019081610f669190613039565b5082816005019081610f789190613039565b5081816007019081610f8a9190613039565b505050505050505050565b6000600860003373ffffffffffffffffffffffffffffffffffffffff1673ffffffffffffffffffffffffffffffffffffffff16815260200190815260200160002060009054906101000a900460ff16611023576040517f08c379a000000000000000000000000000000000000000000000000000000000815260040161101a9061340f565b60405180910390fd5b6001600760003373ffffffffffffffffffffffffffffffffffffffff1673ffffffffffffffffffffffffffffffffffffffff16815260200190815260200160002060008473ffffffffffffffffffffffffffffffffffffffff1673ffffffffffffffffffffffffffffffffffffffff16815260200190815260200160002060006101000a81548160ff021916908315150217905550600e60008154809291906110cb9061313a565b91905055508173ffffffffffffffffffffffffffffffffffffffff163373ffffffffffffffffffffffffffffffffffffffff167f0ceda602a8e00ef76afe24614343eb6c034877c816b6184d641d2d8b713a0fc660405160405180910390a360019050919050565b600860003373ffffffffffffffffffffffffffffffffffffffff1673ffffffffffffffffffffffffffffffffffffffff16815260200190815260200160002060009054906101000a900460ff16156111c0576040517f08c379a00000000000000000000000000000000000000000000000000000000081526004016111b79061347b565b60405180910390fd5b60006111d38a8a8a8a8a8a8a8a8a611dbc565b90506000600460003373ffffffffffffffffffffffffffffffffffffffff1673ffffffffffffffffffffffffffffffffffffffff16815260200190815260200160002090508181600001540361125e576040517f08c379a0000000000000000000000000000000000000000000000000000000008152600401611255906134e7565b60405180910390fd5b8181600001819055504281600101819055506001339080600181540180825580915050600190039060005260206000200160009091909190916101000a81548173ffffffffffffffffffffffffffffffffffffffff021916908373ffffffffffffffffffffffffffffffffffffffff1602179055506001600860003373ffffffffffffffffffffffffffffffffffffffff1673ffffffffffffffffffffffffffffffffffffffff16815260200190815260200160002060006101000a81548160ff0219169083151502179055506001600760003373ffffffffffffffffffffffffffffffffffffffff1673ffffffffffffffffffffffffffffffffffffffff16815260200190815260200160002060003373ffffffffffffffffffffffffffffffffffffffff1673ffffffffffffffffffffffffffffffffffffffff16815260200190815260200160002060006101000a81548160ff021916908315150217905550600b60008154809291906113d39061313a565b91905055503373ffffffffffffffffffffffffffffffffffffffff167fa9449eba6b1fa55e82638d94923a10e3aac7aed5bb16f4b03a04a14abf8083668c8c8c8c8c8c8c8c8c60405161142e99989796959493929190613507565b60405180910390a25050505050505050505050565b600c5481565b60066020528060005260406000206000915090508060000160009054906101000a900473ffffffffffffffffffffffffffffffffffffffff16908060010160009054906101000a900473ffffffffffffffffffffffffffffffffffffffff16908060020180546114b890612e5c565b80601f01602080910402602001604051908101604052809291908181526020018280546114e490612e5c565b80156115315780601f1061150657610100808354040283529160200191611531565b820191906000526020600020905b81548152906001019060200180831161151457829003601f168201915b50505050509080600301805461154690612e5c565b80601f016020809104026020016040519081016040528092919081815260200182805461157290612e5c565b80156115bf5780601f10611594576101008083540402835291602001916115bf565b820191906000526020600020905b8154815290600101906020018083116115a257829003601f168201915b5050505050908060040180546115d490612e5c565b80601f016020809104026020016040519081016040528092919081815260200182805461160090612e5c565b801561164d5780601f106116225761010080835404028352916020019161164d565b820191906000526020600020905b81548152906001019060200180831161163057829003601f168201915b50505050509080600501805461166290612e5c565b80601f016020809104026020016040519081016040528092919081815260200182805461168e90612e5c565b80156116db5780601f106116b0576101008083540402835291602001916116db565b820191906000526020600020905b8154815290600101906020018083116116be57829003601f168201915b5050505050908060060180546116f090612e5c565b80601f016020809104026020016040519081016040528092919081815260200182805461171c90612e5c565b80156117695780601f1061173e57610100808354040283529160200191611769565b820191906000526020600020905b81548152906001019060200180831161174c57829003601f168201915b50505050509080600701805461177e90612e5c565b80601f01602080910402602001604051908101604052809291908181526020018280546117aa90612e5c565b80156117f75780601f106117cc576101008083540402835291602001916117f7565b820191906000526020600020905b8154815290600101906020018083116117da57829003601f168201915b5050505050908060080154905089565b60008054906101000a900473ffffffffffffffffffffffffffffffffffffffff1681565b60086020528060005260406000206000915054906101000a900460ff1681565b606060038054806020026020016040519081016040528092919081815260200182805480156118cf57602002820191906000526020600020905b8160009054906101000a900473ffffffffffffffffffffffffffffffffffffffff1673ffffffffffffffffffffffffffffffffffffffff1681526020019060010190808311611885575b5050505050905090565b60096020528060005260406000206000915054906101000a900460ff1681565b600a6020528060005260406000206000915090505481565b600b5481565b60076020528160005260406000206020528060005260406000206000915091509054906101000a900460ff1681565b6000600860003373ffffffffffffffffffffffffffffffffffffffff1673ffffffffffffffffffffffffffffffffffffffff16815260200190815260200160002060009054906101000a900460ff166119d4576040517f08c379a00000000000000000000000000000000000000000000000000000000081526004016119cb9061340f565b60405180910390fd5b6000600760003373ffffffffffffffffffffffffffffffffffffffff1673ffffffffffffffffffffffffffffffffffffffff16815260200190815260200160002060008473ffffffffffffffffffffffffffffffffffffffff1673ffffffffffffffffffffffffffffffffffffffff16815260200190815260200160002060006101000a81548160ff0219169083151502179055508173ffffffffffffffffffffffffffffffffffffffff163373ffffffffffffffffffffffffffffffffffffffff167f5f708ef9fc37d19d88246c264788c8cdf640c9ff500bd168e941ea1421c4f6c460405160405180910390a360019050919050565b6005602052806000526040600020600091509050806000015490806001018054611af590612e5c565b80601f0160208091040260200160405190810160405280929190818152602001828054611b2190612e5c565b8015611b6e5780601f10611b4357610100808354040283529160200191611b6e565b820191906000526020600020905b815481529060010190602001808311611b5157829003601f168201915b505050505090806002015490806003018054611b8990612e5c565b80601f0160208091040260200160405190810160405280929190818152602001828054611bb590612e5c565b8015611c025780601f10611bd757610100808354040283529160200191611c02565b820191906000526020600020905b815481529060010190602001808311611be557829003601f168201915b505050505090806004018054611c1790612e5c565b80601f0160208091040260200160405190810160405280929190818152602001828054611c4390612e5c565b8015611c905780601f10611c6557610100808354040283529160200191611c90565b820191906000526020600020905b815481529060010190602001808311611c7357829003601f168201915b505050505090806005018054611ca590612e5c565b80601f0160208091040260200160405190810160405280929190818152602001828054611cd190612e5c565b8015611d1e5780601f10611cf357610100808354040283529160200191611d1e565b820191906000526020600020905b815481529060010190602001808311611d0157829003601f168201915b505050505090806006018054611d3390612e5c565b80601f0160208091040260200160405190810160405280929190818152602001828054611d5f90612e5c565b8015611dac5780601f10611d8157610100808354040283529160200191611dac565b820191906000526020600020905b815481529060010190602001808311611d8f57829003601f168201915b5050505050908060070154905088565b6000898989898989898989604051602001611ddf99989796959493929190613622565b6040516020818303038152906040528051906020012090509998505050505050505050565b60606002805480602002602001604051908101604052809291908181526020018280548015611e8857602002820191906000526020600020905b8160009054906101000a900473ffffffffffffffffffffffffffffffffffffffff1673ffffffffffffffffffffffffffffffffffffffff1681526020019060010190808311611e3e575b5050505050905090565b60018181548110611ea257600080fd5b906000526020600020016000915054906101000a900473ffffffffffffffffffffffffffffffffffffffff1681565b600e5481565b60038181548110611ee757600080fd5b906000526020600020016000915054906101000a900473ffffffffffffffffffffffffffffffffffffffff1681565b600d5481565b600960003373ffffffffffffffffffffffffffffffffffffffff1673ffffffffffffffffffffffffffffffffffffffff16815260200190815260200160002060009054906101000a900460ff16611fa8576040517f08c379a0000000000000000000000000000000000000000000000000000000008152600401611f9f9061337d565b60405180910390fd5b33600960008273ffffffffffffffffffffffffffffffffffffffff1673ffffffffffffffffffffffffffffffffffffffff16815260200190815260200160002060009054906101000a900460ff16612035576040517f08c379a000000000000000000000000000000000000000000000000000000000815260040161202c906136f5565b60405180910390fd5b6000600560003373ffffffffffffffffffffffffffffffffffffffff1673ffffffffffffffffffffffffffffffffffffffff1681526020019081526020016000209050888160000181905550878160010190816120929190613039565b50868160020181905550858160030190816120ad9190613039565b50848160040190816120bf9190613039565b50838160050190816120d19190613039565b50828160060190816120e39190613039565b50505050505050505050565b600860003373ffffffffffffffffffffffffffffffffffffffff1673ffffffffffffffffffffffffffffffffffffffff16815260200190815260200160002060009054906101000a900460ff1661217b576040517f08c379a00000000000000000000000000000000000000000000000000000000081526004016121729061340f565b60405180910390fd5b33600860008273ffffffffffffffffffffffffffffffffffffffff1673ffffffffffffffffffffffffffffffffffffffff16815260200190815260200160002060009054906101000a900460ff16612208576040517f08c379a00000000000000000000000000000000000000000000000000000000081526004016121ff90613761565b60405180910390fd5b6000600460003373ffffffffffffffffffffffffffffffffffffffff1673ffffffffffffffffffffffffffffffffffffffff1681526020019081526020016000209050600061225e8c8c8c8c8c8c8c8c8c611dbc565b9050808260000154036122a6576040517f08c379a000000000000000000000000000000000000000000000000000000000815260040161229d906134e7565b60405180910390fd5b808260000181905550505050505050505050505050565b600082825260208201905092915050565b7f4574686572206e6f742061636365707465640000000000000000000000000000600082015250565b60006123046012836122bd565b915061230f826122ce565b602082019050919050565b60006020820190508181036000830152612333816122f7565b9050919050565b7f46616c6c6261636b2066756e6374696f6e206e6f7420616c6c6f776564000000600082015250565b6000612370601d836122bd565b915061237b8261233a565b602082019050919050565b6000602082019050818103600083015261239f81612363565b9050919050565b6000604051905090565b600080fd5b600080fd5b600073ffffffffffffffffffffffffffffffffffffffff82169050919050565b60006123e5826123ba565b9050919050565b6123f5816123da565b811461240057600080fd5b50565b600081359050612412816123ec565b92915050565b60006020828403121561242e5761242d6123b0565b5b600061243c84828501612403565b91505092915050565b6000819050919050565b61245881612445565b82525050565b6000819050919050565b6124718161245e565b82525050565b600060408201905061248c600083018561244f565b6124996020830184612468565b9392505050565b6124a98161245e565b81146124b457600080fd5b50565b6000813590506124c6816124a0565b92915050565b6000602082840312156124e2576124e16123b0565b5b60006124f0848285016124b7565b91505092915050565b612502816123da565b82525050565b600060208201905061251d60008301846124f9565b92915050565b600081519050919050565b600082825260208201905092915050565b6000819050602082019050919050565b612558816123da565b82525050565b600061256a838361254f565b60208301905092915050565b6000602082019050919050565b600061258e82612523565b612598818561252e565b93506125a38361253f565b8060005b838110156125d45781516125bb888261255e565b97506125c683612576565b9250506001810190506125a7565b5085935050505092915050565b600060208201905081810360008301526125fb8184612583565b905092915050565b600080fd5b600080fd5b6000601f19601f8301169050919050565b7f4e487b7100000000000000000000000000000000000000000000000000000000600052604160045260246000fd5b6126568261260d565b810181811067ffffffffffffffff821117156126755761267461261e565b5b80604052505050565b60006126886123a6565b9050612694828261264d565b919050565b600067ffffffffffffffff8211156126b4576126b361261e565b5b6126bd8261260d565b9050602081019050919050565b82818337600083830152505050565b60006126ec6126e784612699565b61267e565b90508281526020810184848401111561270857612707612608565b5b6127138482856126ca565b509392505050565b600082601f8301126127305761272f612603565b5b81356127408482602086016126d9565b91505092915050565b600080600080600080600060e0888a031215612768576127676123b0565b5b60006127768a828b01612403565b975050602088013567ffffffffffffffff811115612797576127966123b5565b5b6127a38a828b0161271b565b965050604088013567ffffffffffffffff8111156127c4576127c36123b5565b5b6127d08a828b0161271b565b955050606088013567ffffffffffffffff8111156127f1576127f06123b5565b5b6127fd8a828b0161271b565b945050608088013567ffffffffffffffff81111561281e5761281d6123b5565b5b61282a8a828b0161271b565b93505060a088013567ffffffffffffffff81111561284b5761284a6123b5565b5b6128578a828b0161271b565b92505060c088013567ffffffffffffffff811115612878576128776123b5565b5b6128848a828b0161271b565b91505092959891949750929550565b600080600080600080600060e0888a0312156128b2576128b16123b0565b5b60006128c08a828b016124b7565b975050602088013567ffffffffffffffff8111156128e1576128e06123b5565b5b6128ed8a828b0161271b565b96505060406128fe8a828b016124b7565b955050606088013567ffffffffffffffff81111561291f5761291e6123b5565b5b61292b8a828b0161271b565b945050608088013567ffffffffffffffff81111561294c5761294b6123b5565b5b6129588a828b0161271b565b93505060a088013567ffffffffffffffff811115612979576129786123b5565b5b6129858a828b0161271b565b92505060c088013567ffffffffffffffff8111156129a6576129a56123b5565b5b6129b28a828b0161271b565b91505092959891949750929550565b60008115159050919050565b6129d6816129c1565b82525050565b60006020820190506129f160008301846129cd565b92915050565b60008060008060008060008060006101208a8c031215612a1a57612a196123b0565b5b6000612a288c828d016124b7565b99505060208a013567ffffffffffffffff811115612a4957612a486123b5565b5b612a558c828d0161271b565b9850506040612a668c828d016124b7565b97505060608a013567ffffffffffffffff811115612a8757612a866123b5565b5b612a938c828d0161271b565b96505060808a013567ffffffffffffffff811115612ab457612ab36123b5565b5b612ac08c828d0161271b565b95505060a08a013567ffffffffffffffff811115612ae157612ae06123b5565b5b612aed8c828d0161271b565b94505060c08a013567ffffffffffffffff811115612b0e57612b0d6123b5565b5b612b1a8c828d0161271b565b93505060e08a013567ffffffffffffffff811115612b3b57612b3a6123b5565b5b612b478c828d0161271b565b9250506101008a013567ffffffffffffffff811115612b6957612b686123b5565b5b612b758c828d0161271b565b9150509295985092959850929598565b6000602082019050612b9a6000830184612468565b92915050565b600081519050919050565b60005b83811015612bc9578082015181840152602081019050612bae565b60008484015250505050565b6000612be082612ba0565b612bea81856122bd565b9350612bfa818560208601612bab565b612c038161260d565b840191505092915050565b600061012082019050612c24600083018c6124f9565b612c31602083018b6124f9565b8181036040830152612c43818a612bd5565b90508181036060830152612c578189612bd5565b90508181036080830152612c6b8188612bd5565b905081810360a0830152612c7f8187612bd5565b905081810360c0830152612c938186612bd5565b905081810360e0830152612ca78185612bd5565b9050612cb7610100830184612468565b9a9950505050505050505050565b60008060408385031215612cdc57612cdb6123b0565b5b6000612cea85828601612403565b9250506020612cfb85828601612403565b9150509250929050565b600061010082019050612d1b600083018b612468565b8181036020830152612d2d818a612bd5565b9050612d3c6040830189612468565b8181036060830152612d4e8188612bd5565b90508181036080830152612d628187612bd5565b905081810360a0830152612d768186612bd5565b905081810360c0830152612d8a8185612bd5565b9050612d9960e0830184612468565b9998505050505050505050565b6000602082019050612dbb600083018461244f565b92915050565b7f44617465206d7573742062652070726f76696465640000000000000000000000600082015250565b6000612df76015836122bd565b9150612e0282612dc1565b602082019050919050565b60006020820190508181036000830152612e2681612dea565b9050919050565b7f4e487b7100000000000000000000000000000000000000000000000000000000600052602260045260246000fd5b60006002820490506001821680612e7457607f821691505b602082108103612e8757612e86612e2d565b5b50919050565b60008190508160005260206000209050919050565b60006020601f8301049050919050565b600082821b905092915050565b600060088302612eef7fffffffffffffffffffffffffffffffffffffffffffffffffffffffffffffffff82612eb2565b612ef98683612eb2565b95508019841693508086168417925050509392505050565b6000819050919050565b6000612f36612f31612f2c8461245e565b612f11565b61245e565b9050919050565b6000819050919050565b612f5083612f1b565b612f64612f5c82612f3d565b848454612ebf565b825550505050565b600090565b612f79612f6c565b612f84818484612f47565b505050565b5b81811015612fa857612f9d600082612f71565b600181019050612f8a565b5050565b601f821115612fed57612fbe81612e8d565b612fc784612ea2565b81016020851015612fd6578190505b612fea612fe285612ea2565b830182612f89565b50505b505050565b600082821c905092915050565b600061301060001984600802612ff2565b1980831691505092915050565b60006130298383612fff565b9150826002028217905092915050565b61304282612ba0565b67ffffffffffffffff81111561305b5761305a61261e565b5b6130658254612e5c565b613070828285612fac565b600060209050601f8311600181146130a35760008415613091578287015190505b61309b858261301d565b865550613103565b601f1984166130b186612e8d565b60005b828110156130d9578489015182556001820191506020850194506020810190506130b4565b868310156130f657848901516130f2601f891682612fff565b8355505b6001600288020188555050505b505050505050565b7f4e487b7100000000000000000000000000000000000000000000000000000000600052601160045260246000fd5b60006131458261245e565b91507fffffffffffffffffffffffffffffffffffffffffffffffffffffffffffffffff82036131775761317661310b565b5b600182019050919050565b600060c082019050818103600083015261319c8189612bd5565b905081810360208301526131b08188612bd5565b905081810360408301526131c48187612bd5565b905081810360608301526131d88186612bd5565b905081810360808301526131ec8185612bd5565b905081810360a08301526132008184612bd5565b9050979650505050505050565b7f446f63746f722064657461696c7320616c726561647920736574000000000000600082015250565b6000613243601a836122bd565b915061324e8261320d565b602082019050919050565b6000602082019050818103600083015261327281613236565b9050919050565b600060e08201905061328e600083018a612468565b81810360208301526132a08189612bd5565b90506132af6040830188612468565b81810360608301526132c18187612bd5565b905081810360808301526132d58186612bd5565b905081810360a08301526132e98185612bd5565b905081810360c08301526132fd8184612bd5565b905098975050505050505050565b7f4f6e6c7920646f63746f72732063616e2063616c6c20746869732066756e637460008201527f696f6e0000000000000000000000000000000000000000000000000000000000602082015250565b60006133676023836122bd565b91506133728261330b565b604082019050919050565b600060208201905081810360008301526133968161335a565b9050919050565b7f4f6e6c792070617469656e74732063616e2063616c6c20746869732066756e6360008201527f74696f6e00000000000000000000000000000000000000000000000000000000602082015250565b60006133f96024836122bd565b91506134048261339d565b604082019050919050565b60006020820190508181036000830152613428816133ec565b9050919050565b7f50617469656e742064657461696c7320616c7265616479207365740000000000600082015250565b6000613465601b836122bd565b91506134708261342f565b602082019050919050565b6000602082019050818103600083015261349481613458565b9050919050565b7f4e6f206368616e67657320746f2070617469656e742064657461696c73000000600082015250565b60006134d1601d836122bd565b91506134dc8261349b565b602082019050919050565b60006020820190508181036000830152613500816134c4565b9050919050565b60006101208201905061351d600083018c612468565b818103602083015261352f818b612bd5565b905061353e604083018a612468565b81810360608301526135508189612bd5565b905081810360808301526135648188612bd5565b905081810360a08301526135788187612bd5565b905081810360c083015261358c8186612bd5565b905081810360e08301526135a08185612bd5565b90508181036101008301526135b58184612bd5565b90509a9950505050505050505050565b6000819050919050565b6135e06135db8261245e565b6135c5565b82525050565b600081905092915050565b60006135fc82612ba0565b61360681856135e6565b9350613616818560208601612bab565b80840191505092915050565b600061362e828c6135cf565b60208201915061363e828b6135f1565b915061364a828a6135cf565b60208201915061365a82896135f1565b915061366682886135f1565b915061367282876135f1565b915061367e82866135f1565b915061368a82856135f1565b915061369682846135f1565b91508190509a9950505050505050505050565b7f446f63746f7220646f6573206e6f742065786973740000000000000000000000600082015250565b60006136df6015836122bd565b91506136ea826136a9565b602082019050919050565b6000602082019050818103600083015261370e816136d2565b9050919050565b7f50617469656e7420646f6573206e6f7420657869737400000000000000000000600082015250565b600061374b6016836122bd565b915061375682613715565b602082019050919050565b6000602082019050818103600083015261377a8161373e565b905091905056fea2646970667358221220a77cd9442c99f1d4f1a8f40e5b8df387e9ceaa1ecbdf8c406c0cc607064ba43e64736f6c63430008130033",
  "linkReferences": {},
  "deployedLinkReferences": {}
}